{
  "contractName": "Voting",
  "abi": [
    {
      "constant": true,
      "inputs": [
        {
          "name": "",
          "type": "bytes32"
        }
      ],
      "name": "validCandidates",
      "outputs": [
        {
          "name": "",
          "type": "bool"
        }
      ],
      "payable": false,
      "stateMutability": "view",
      "type": "function"
    },
    {
      "constant": true,
      "inputs": [
        {
          "name": "",
          "type": "address"
        }
      ],
      "name": "voterStatus",
      "outputs": [
        {
          "name": "",
          "type": "bool"
        }
      ],
      "payable": false,
      "stateMutability": "view",
      "type": "function"
    },
    {
      "constant": true,
      "inputs": [
        {
          "name": "",
          "type": "bytes32"
        }
      ],
      "name": "votesReceived",
      "outputs": [
        {
          "name": "",
          "type": "uint8"
        }
      ],
      "payable": false,
      "stateMutability": "view",
      "type": "function"
    },
    {
      "constant": true,
      "inputs": [
        {
          "name": "",
          "type": "bytes32"
        }
      ],
      "name": "candidateHash",
      "outputs": [
        {
          "name": "",
          "type": "bytes32"
        }
      ],
      "payable": false,
      "stateMutability": "view",
      "type": "function"
    },
    {
      "inputs": [
        {
          "name": "_candidateNames",
          "type": "bytes32[]"
        },
        {
          "name": "_candidateHashes",
          "type": "bytes32[]"
        }
      ],
      "payable": false,
      "stateMutability": "nonpayable",
      "type": "constructor"
    },
    {
      "constant": true,
      "inputs": [
        {
          "name": "_candidate",
          "type": "bytes32"
        }
      ],
      "name": "totalVotesFor",
      "outputs": [
        {
          "name": "",
          "type": "uint8"
        }
      ],
      "payable": false,
      "stateMutability": "view",
      "type": "function"
    },
    {
      "constant": false,
      "inputs": [
        {
          "name": "_candidate",
          "type": "bytes32"
        },
        {
          "name": "_voter",
          "type": "address"
        },
        {
          "name": "_signedMessage",
          "type": "bytes"
        }
      ],
      "name": "voteForCandidate",
      "outputs": [],
      "payable": false,
      "stateMutability": "nonpayable",
      "type": "function"
    }
  ],
  "bytecode": "0x608060405234801561001057600080fd5b5060405161074a38038061074a833981018060405281019080805182019291906020018051820192919050505060008090505b82518110156100f657600160036000858481518110151561006057fe5b906020019060200201516000191660001916815260200190815260200160002060006101000a81548160ff02191690831515021790555081818151811015156100a557fe5b906020019060200201516001600085848151811015156100c157fe5b906020019060200201516000191660001916815260200190815260200160002081600019169055508080600101915050610043565b505050610642806101086000396000f300608060405260043610610078576000357c0100000000000000000000000000000000000000000000000000000000900463ffffffff1680632f265cf71461007d5780633390b9c2146100c8578063576cc4f2146101115780637021939f1461016c578063cd3a83d5146101b7578063efa4f3c41461024e575b600080fd5b34801561008957600080fd5b506100ac600480360381019080803560001916906020019092919050505061029b565b604051808260ff1660ff16815260200191505060405180910390f35b3480156100d457600080fd5b506100f76004803603810190808035600019169060200190929190505050610300565b604051808215151515815260200191505060405180910390f35b34801561011d57600080fd5b50610152600480360381019080803573ffffffffffffffffffffffffffffffffffffffff169060200190929190505050610320565b604051808215151515815260200191505060405180910390f35b34801561017857600080fd5b5061019b6004803603810190808035600019169060200190929190505050610340565b604051808260ff1660ff16815260200191505060405180910390f35b3480156101c357600080fd5b5061024c6004803603810190808035600019169060200190929190803573ffffffffffffffffffffffffffffffffffffffff169060200190929190803590602001908201803590602001908080601f0160208091040260200160405190810160405280939291908181526020018383808284378201915050505050509192919290505050610360565b005b34801561025a57600080fd5b5061027d6004803603810190808035600019169060200190929190505050610506565b60405180826000191660001916815260200191505060405180910390f35b600060036000836000191660001916815260200190815260200160002060009054906101000a900460ff1615156102d157600080fd5b600080836000191660001916815260200190815260200160002060009054906101000a900460ff169050919050565b60036020528060005260406000206000915054906101000a900460ff1681565b60026020528060005260406000206000915054906101000a900460ff1681565b60006020528060005260406000206000915054906101000a900460ff1681565b600080600260008573ffffffffffffffffffffffffffffffffffffffff1673ffffffffffffffffffffffffffffffffffffffff16815260200190815260200160002060009054906101000a900460ff161515156103bc57600080fd5b6001600086600019166000191681526020019081526020016000205491506103f183836000191661051e90919063ffffffff16565b90508373ffffffffffffffffffffffffffffffffffffffff168173ffffffffffffffffffffffffffffffffffffffff1614151561042d57600080fd5b60036000866000191660001916815260200190815260200160002060009054906101000a900460ff16151561046157600080fd5b6001600080876000191660001916815260200190815260200160002060008282829054906101000a900460ff160192506101000a81548160ff021916908360ff1602179055506001600260008673ffffffffffffffffffffffffffffffffffffffff1673ffffffffffffffffffffffffffffffffffffffff16815260200190815260200160002060006101000a81548160ff0219169083151502179055505050505050565b60016020528060005260406000206000915090505481565b60008060008060418551141515610538576000935061060d565b6020850151925060408501519150606085015160001a9050601b8160ff16101561056357601b810190505b601b8160ff161415801561057b5750601c8160ff1614155b15610589576000935061060d565b600186828585604051600081526020016040526040518085600019166000191681526020018460ff1660ff1681526020018360001916600019168152602001826000191660001916815260200194505050505060206040516020810390808403906000865af1158015610600573d6000803e3d6000fd5b5050506020604051035193505b505050929150505600a165627a7a723058203db3de2195bc76c2f20681bb498a6075bff0ea25b81158bdc2e298e38ad1c8960029",
  "source": "pragma solidity ^0.4.18;\nimport \"./ECRecovery.sol\";\n\ncontract Voting {\n  using ECRecovery for bytes32;\n\n  mapping (bytes32 => uint8) public votesReceived;\n\n  mapping(bytes32 => bytes32) public candidateHash;\n\n  mapping(address => bool) public voterStatus;\n\n  mapping(bytes32 => bool) public validCandidates;\n\n  function Voting(bytes32[] _candidateNames, bytes32[] _candidateHashes) public {\n    for(uint i = 0; i < _candidateNames.length; i++) {\n      validCandidates[_candidateNames[i]] = true;\n      candidateHash[_candidateNames[i]] = _candidateHashes[i];\n    }\n  }\n\n  function totalVotesFor(bytes32 _candidate) view public returns (uint8) {\n    require(validCandidates[_candidate]);\n    return votesReceived[_candidate];\n  }\n\n  function voteForCandidate(bytes32 _candidate, address _voter, bytes _signedMessage) public {\n    require(!voterStatus[_voter]);\n\n    bytes32 voteHash = candidateHash[_candidate];\n    address recoveredAddress = voteHash.recover(_signedMessage);\n\n    require(recoveredAddress == _voter);\n    require(validCandidates[_candidate]);\n\n    votesReceived[_candidate] += 1;\n    voterStatus[_voter] = true;\n  }\n}\n\n",
  "sourcePath": "/home/sxf/下载/ethereum_voting_dapp/contracts/Voting.sol",
  "compiler": {
    "name": "solc",
    "version": "0.4.24+commit.e67f0147.Emscripten.clang"
  },
  "schemaVersion": "2.0.1",
  "updatedAt": "2018-07-31T12:05:03.020Z"
}